:100320004400040016E36042000202EE42000000B6
:0103300000CC
:1002F2008F0E8E0D8D0C8C0B780B74FF3143E4FB4B
:09030200FAF9F8C3312B40F02296
:10030B0075A6FF75D4FF75D5FF75D603D2A375E11E
:05031B000875E2452217
:1002CC0075B69075A90875B280E4FFFEE5B220E61C
:1002DC000B0FBF00010EBE13F3BF88F0900004316A
:0502EC00610016E36053
:0102F10022EA
:10028A00E4F5D875D90875DA4D75DB4675DC427523
:10029A00DD4275DE42900002E0FFA3E0900000CF4D
:1002AA00F0A3EFF0900001E0F5FB900000E0F5FC10
:1002BA0075EA0175EC8075EEC075FEE043E610D272
:0202CA00DE2232
:10021E00750AC8E4F5D9710B51CC518AD2AF750865
:10022E00007509DCC3E5099470E508940350EFE509
:10023E000925E0FFE50833AB07FAE4F9F89000046E
:10024E00E0FCA3E0FDA3E0FEA3E0FF119990000205
:10025E00EEF0A3EFF07FE87E037D007C0051F2E527
:10026E000AC394FF4003750ADCAF0A050A8FEC74CB
:0C027E000B2509F509E43508F50880A8F7
:02005B0001039F
:10000300C0E0C083C082C0D075D000C00630DF021C
:10001300C2DF30D822C2D8900001E0F5FB90000087
:10002300E0F5FC900003E025FBFE900002E035FCC8
:10003300900000F0A3CEF030D902C2D930DA02C268
:10004300DA30DB02C2DB30DC02C2DCD006D0D0D037
:0600530082D083D0E032F0
:0300000002019268
:0C019200787FE4F6D8FD75810E0201D9DB
:10005D0075F008758200EF2FFFEE33FECD33CDCC5A
:10006D0033CCC58233C5829BED9AEC99E5829840DD
:10007D000CF582EE9BFEED9AFDEC99FC0FD5F0D6BA
:10008D00E4CEFBE4CDFAE4CCF9A88222B800C1B9E4
:10009D000059BA002DEC8BF084CFCECDFCE5F0CB22
:1000AD00F97818EF2FFFEE33FEED33FDEC33FCEB5B
:1000BD0033FB10D703994004EB99FB0FD8E5E4F916
:1000CD00FA227818EF2FFFEE33FEED33FDEC33FC03
:1000DD00C933C910D7059BE99A4007EC9BFCE99AF7
:1000ED00F90FD8E0E4C9FAE4CCFB2275F010EF2F3C
:1000FD00FFEE33FEED33FDCC33CCC833C810D7073C
:10010D009BEC9AE899400AED9BFDEC9AFCE899F876
:0E011D000FD5F0DAE4CDFBE4CCFAE4C8F92209
:10012B00EB9FF5F0EA9E42F0E99D42F0EC6480C84B
:06013B0064809845F022EB
:100141007401FF3395E0FEFDFC080808E6CF2FF6A9
:1001510018E6CE3EF618E6CD3DF618E6CC3CF62282
:10016100A8828583F0D083D082120178120178129F
:100171000178120178E473E493A3C583C5F0C583C4
:10018100C8C582C8F0A3C583C5F0C583C8C582C8E8
:01019100224B
:10019E0002021EE493A3F8E493A34003F68001F257
:1001AE0008DFF48029E493A3F85407240CC8C33362
:1001BE00C4540F4420C8834004F456800146F6DF31
:1001CE00E4800B0102040810204080900320E47E9E
:1001DE00019360BCA3FF543F30E509541FFEE49326
:1001EE00A360010ECF54C025E060A840B8E493A3ED
:1001FE00FAE493A3F8E493A3C8C582C8CAC583CA18
:10020E00F0A3C8C582C8CAC583CADFE9DEE780BECF
:0103310000CB
:00000001FF
