:100003004400050016E360410002004200000000C6
:0F00130042000302EE42000900000316FF00271F
:0100270022B6
:1005F80075F13F75F2DF75A41075A5CD75A6FC756C
:10060800A77F75D4CF75D5F075D67075DFFED2800B
:10061800D281D282D283D285D286D287D291D29405
:10062800D295D2A0D2A1D2B5D2B6D2B7C290C29238
:10063800D293C296D297D2A3C2A4C2A5C2A6C2A779
:0F064800D2B475E10F75E2439000027401F02205
:08036C008F118E108D0F8C0E15
:1003740075B68075EF86AC0EAD0FAE10AF111201DD
:10038400DB03DB0000271003D600013880041100D2
:1003940016E36003CE005B8D8003C600B71B000329
:1003A400E601312D0003C1016E360003B902DC6C95
:1003B400000000041143B61075A90B800875A90A42
:1003C400800375A90875B283804D75A90875B2823A
:1003D4008045438683800343868075A90C75B240AB
:1003E4008035900002E060FA75B167E4F512F51308
:1003F4000513E51370020512B4E8F5E512B403F031
:10040400E5B130E7FB75A909E4F5B2800A9000056F
:100414001201AA0016E3607F007E2D7D317C01ABC2
:1004240011AA10A90FA80EC312018D601AE4F512C7
:10043400F513E5B220E6100513E51370020512B4B6
:10044400B8F0E512B40BEBAF11AE10AD0FAC0E90DB
:05045400000512019EED
:010459002280
:10071E00E4F5D875D90875DA4D75DB4275DC46906F
:10072E000003E0FFA3E0900000CFF0A3EFF09000F5
:10073E0001E0F5FB900000E0F5FC75EA8075EC0633
:06074E0043E610D2DE229A
:03005B000206E4B6
:1006E400C0E0C083C082C0D075D000C006C2D8901C
:1006F4000001E0F5FB900000E0F5FC900004E0252B
:10070400FBFE900003E035FC900000F0A3CEF0D097
:0A07140006D0D0D082D083D0E032AE
:10079300758E02758902758C06758A06D28CD2A96C
:0107A3002233
:1006A600EF4E70047E037FE8E4F5C8FC7D0C120073
:1006B6005EAB07AA06E4F9F8900005E0FCA3E0FDAE
:1006C600A3E0FEA3E0FF1200FBC3E49FFFE49EF558
:0E06D600CB8FCA85CBCD85CACCD2CAD2AD227D
:03002B0002065773
:10065700C0E0C0F0C083C082C0D075D000C000C069
:1006670001C002C003C004C005C006C00790000A4D
:10067700E004F07006900009E004F0AA17A9181228
:100687000215C2CFD007D006D005D004D003D002C0
:0F069700D001D000D0D0D082D083D0F0D0E032CC
:10078000D288D28AC289C28B43E40A43E4B0D2A899
:03079000D2AA22C8
:04002300759810229A
:100571008F118E108D0F8C0E75A14075F809E4FF57
:10058100FEFDFCAB11AA10A90FA80EC312018D70BC
:050591000475A2022226
:10059600E47F02FEFDFCAB11AA10A90FA80E120003
:1005A60070A804A905AA06AB07900005E0FCA3E025
:1005B600FDA3E0FEA3E0FF1200FB8F158E148D1342
:1005C6008C12E47F01FEFDFCAB15AA14A913A81238
:1005D600D312018D4018E51524FFF515E51434FFF7
:1005E600F514E51334FFF513E51234FFF5128515FE
:0105F600A262
:0105F70022E1
:1007540030FE02C2FE30FD02C2FD30FC02C2FCC209
:10076400FA8FA3E4FFFE20FF0C000FBF00010EBEB2
:0B07740013F4BF88F1AFA3C2FFD2FA5C
:01077F002257
:10002E00E4FD7F0C1207B47D017F0C1207B47D0432
:10003E007F0A1207B47D047F0B1207B47D0F7F0970
:0D004E001207B4E4F512FFFEFDFC0204E60B
:0D07B400C2B5120754AF05120754D2B5228A
:1004E6008F118E108D0F8C0EE47B0AFAF9F812002C
:1004F600FBAF03AD077F041207B4E47B0AFAF9F8F1
:10050600AF11AE10AD0FAC0E1200FBE47B0AFAF988
:10051600F81200FBAF03AD077F031207B4E47B6458
:10052600FAF9F8AF11AE10AD0FAC0E1200FBE47B7A
:100536000AFAF9F81200FBAF03AD077F021207B4FF
:10054600E47BE87A03F9F8AF11AE10AD0FAC0E12EA
:1005560000FBE47B0AFAF9F81200FBAF03AD077F54
:0B056600011207B4AD127F050207B4BC
:1007A400EF1FAC0670011ED39400EC940050F122AC
:10021B00E4F50BF50AF509F508F50CF50DF5D91212
:10022B0005F87F607EE37D167C0012036C7F407EB9
:10023B00427D0F7C0012057112071E7FE87E0312B0
:10024B0006A6D2AF12002E7D017F0F1207B41D7FC1
:10025B000F1207B47D047F0A1207B4E50B2401F5D6
:10026B000BE4350AF50AE43509F509E43508F50818
:10027B00E50B5410FFEF24FF92A4E50B5420FFEF86
:10028B0024FF92A6E50B5440FFEF24FF92A5E47BDD
:10029B0064FAF9F8AF0BAE0AAD09AC081200FBAC6F
:1002AB0000AD01AE02AF03E47B02FAF9F812007065
:1002BB00C374FF9FF5EA7FDC7E051207A430805ED6
:1002CB0043DA40E47B64FAF9F8AF0BAE0AAD09AC44
:1002DB00081200FBAC00AD01AE02AF03E47B0AFADF
:1002EB00F9F8120070EF246EFFE43EFEE43DFDE4EE
:1002FB003CFCE47B02FAF9F8120070A804A905AAE9
:10030B0006AB07900005E0FCA3E0FDA3E0FEA3E035
:10031B00FF1200FB900003EEF0A3EFF0800353DA23
:10032B00BFC390000AE094E8900009E094035003E7
:10033B00020266050DE50D7002050CE4F0A3F0AEAC
:10034B000CAF0DFCFDE50D547FF5121204E6E50D27
:10035B0030E1047D0180027D097F0A1207B402029D
:01036B00662B
:0300000002045A9D
:0C045A00787FE4F6D8FD7581180204A13B
:10005E00EF8DF0A4A8F0CF8CF0A428CE8DF0A42EB6
:02006E00FE2270
:10007000E88FF0A4CC8BF0A42CFCE98EF0A42CFC2F
:100080008AF0EDA42CFCEA8EF0A4CDA8F08BF0A4AD
:100090002DCC3825F0FDE98FF0A42CCD35F0FCEB0C
:1000A0008EF0A4FEA9F0EB8FF0A4CFC5F02ECD39D1
:0F00B000FEE43CFCEAA42DCE35F0FDE43CFC223E
:1000BF0075F008758200EF2FFFEE33FECD33CDCCF8
:1000CF0033CCC58233C5829BED9AEC99E58298407B
:1000DF000CF582EE9BFEED9AFDEC99FC0FD5F0D658
:1000EF00E4CEFBE4CDFAE4CCF9A88222B800C1B982
:1000FF000059BA002DEC8BF084CFCECDFCE5F0CBC0
:10010F00F97818EF2FFFEE33FEED33FDEC33FCEBF8
:10011F0033FB10D703994004EB99FB0FD8E5E4F9B3
:10012F00FA227818EF2FFFEE33FEED33FDEC33FCA0
:10013F00C933C910D7059BE99A4007EC9BFCE99A94
:10014F00F90FD8E0E4C9FAE4CCFB2275F010EF2FD9
:10015F00FFEE33FEED33FDCC33CCC833C810D707D9
:10016F009BEC9AE899400AED9BFDEC9AFCE899F814
:0E017F000FD5F0DAE4CDFBE4CCFAE4C8F922A7
:10018D00EB9FF5F0EA9E42F0E99D42F0E89C45F0C8
:01019D00223F
:0C019E00ECF0A3EDF0A3EEF0A3EFF022D4
:1001AA00A8828583F0D083D0821201C11201C112C4
:1001BA0001C11201C1E473E493A3C583C5F0C583E9
:1001CA00C8C582C8F0A3C583C5F0C583C8C582C89F
:0101DA002202
:1001DB00D083D082E4937012740193700DA3A39318
:1001EB00F8740193F5828883E4737402936C701234
:1001FB007403936D700C7404936E70067405936F97
:0A020B0060DDA3A3A3A3A3A380CA90
:060215008A838982E47374
:1004660002021BE493A3F8E493A34003F68001F28F
:1004760008DFF48029E493A3F85407240CC8C33397
:10048600C4540F4420C8834004F456800146F6DF66
:10049600E4800B0102040810204080900003E47EF3
:1004A600019360BCA3FF543F30E509541FFEE4935B
:1004B600A360010ECF54C025E060A840B8E493A322
:1004C600FAE493A3F8E493A3C8C582C8CAC583CA4D
:1004D600F0A3C8C582C8CAC583CADFE9DEE780BE05
:0100220000DD
:00000001FF
